:020000040800F2
:10000000F81A002045010008AD010008AF01000802
:10001000B3010008B7010008BB01000800000000A0
:10002000000000000000000000000000BF01000808
:10003000C101000800000000C3010008C50100085C
:100040005F0100085F0100085F0100085F01000810
:100050005F0100085F0100085F0100085F01000800
:100060005F0100085F0100085F0100085F010008F0
:100070005F0100085F0100085F0100085F010008E0
:100080005F0100085F0100085F0100085F010008D0
:100090005F0100085F0100085F0100085F010008C0
:1000A0005F0100085F0100085F0100085F010008B0
:1000B000D7010008DF010008E70100085F01000820
:1000C0005F0100085F0100085F0100085F01000890
:1000D0005F010008CF010008C70100085F010008A8
:1000E0005F0100085F0100085F0100085F01000870
:1000F0005F0100085F0100085F0100085F01000860
:100100005F0100085F0100085F0100085F0100084F
:100110005F0100085F0100085F0100085F0100083F
:100120005F0100085F0100085F0100085F0100082F
:10013000DFF80CD005F004F90048004795010008ED
:10014000F81A00200648804706480047FEE7FEE709
:10015000FEE7FEE7FEE7FEE7FEE7FEE7FEE7FEE777
:10016000CD0200083101000810B54FF4A06000F086
:100170002DF902F0A4FC03F00DFF03F007FC03F0DF
:100180007AF904F0D7FE05F02DF804F0E1FD04F053
:10019000E9FF10BDFFF7E8FF07E004F078FE04F088
:1001A000F4FF04F000FF05F055F8F6E7704700BFD4
:1001B000FEE700BFFEE700BFFEE700BFFEE77047B7
:1001C00070477047704710B504F08FFC10BD10B534
:1001D00004F058FA10BD10B503F0F3FC10BD10B5D3
:1001E00003F0B0F910BD10B503F0FCFB10BD00002A
:1001F0000CB50020019000906B48006840F48030FE
:100200006949086000BF6848006800F40030009049
:100210000198401C0190009818B90198B0F5A06FA2
:10022000F1D16148006810F4003F02D00120009035
:1002300001E0002000900098012842D15B4800684E
:1002400040F01000594908600846006820F003009B
:1002500008600846006840F00200086052484068A4
:10026000514948600846406848600846406840F484
:10027000806048600846406820F47C10486008466A
:10028000406840F4E81048600846006840F080701C
:10029000086000BF4448006810F0007FFAD0424870
:1002A000406820F00300404948600846406840F03C
:1002B0000200486000BF3C48406800F00C0008287D
:1002C000F9D10CBD10B5FFF793FF10BD10B536483E
:1002D000006840F00100344908600846406834492D
:1002E00008403149486008460068324908402E49B4
:1002F00008600846006820F48020086008464068CE
:1003000020F4FE0048604FF41F0088600020C8629F
:10031000FFF7D8FF4FF000602749086010BD30B5E7
:1003200000210020002200231F4C646804F00C010F
:1003300021B1042906D0082925D107E01F4C204D02
:100340002C6024E01D4C1E4D2C6020E0164C64688F
:1003500004F47010144C646804F48032022404EB3A
:10036000904022B9174C4443154D2C600AE00E4CC6
:10037000E46A04F00F04631C104CB4FBF3F4444330
:100380000F4D2C6003E00D4C0D4D2C6000BF00BFE5
:10039000054C6468C4F303140B4D295D084C2468B4
:1003A000CC40074D2C6030BD0010024000200240C0
:1003B0000000FFF8FFFFF6FE08ED00E000127A00F3
:1003C0000000002000093D000400002031490143E5
:1003D000314A1160704770B5002100230F22C478A4
:1003E0000CB32D4C246804F4E064C4F5E064210AE5
:1003F000C1F10403CA40447804FA03F1847814403C
:1004000021430901254C0678A155047804F01F0505
:100410000124AC4005786D114FF0E02606EB850510
:10042000C5F8004109E0047804F01F050124AC4040
:100430001B4D0678761145F8264070BD194A0A40D2
:100440000243154B1B1F1A60704739B1124A121D27
:1004500012680243104B1B1D1A6006E00E4A121D63
:10046000126882430C4B1B1D1A607047042808D188
:100470004FF0E021096941F004014FF0E0221161E1
:1004800007E04FF0E021096921F004014FF0E0227C
:10049000116170470000FA050CED00E000E400E097
:1004A00080E100E080FFFF1F10B50446FA48844257
:1004B00008D10121401500F05CFD0021601500F01D
:1004C00058FD17E0F548844208D10121001500F0DD
:1004D00050FD0021201500F04CFD0BE0F048844257
:1004E00008D10121C80300F044FD00214FF4004071
:1004F00000F03FFD10BD30B50246002000235068DB
:10050000E84C20400D790C6844EA052420435060F3
:100510009068E54C2040D1E902542C434D7944EADF
:10052000450420439060D06A20F470000C7C641E67
:10053000E4B2234340EA0350D06230BD00210160A1
:10054000017141718160C16001210174704721B165
:10055000826842F00102826003E0826822F00102B8
:100560008260704721B1826842F48072826003E049
:10057000826822F480728260704710B50023CBB28B
:100580001AB144681C43446002E044689C434460E0
:1005900010BD816841F0080181607047014600206C
:1005A0008A6812F0080F01D0012000E00020704797
:1005B000816841F0040181607047014600208A682B
:1005C00012F0040F01D0012000E00020704721B19B
:1005D000826842F4A002826003E0826822F4A002F2
:1005E00082607047014600208A6812F4800F01D0B3
:1005F000012000E00020704710B50A4600210023CA
:10060000416821F46041531E41EA4331416010BD0D
:1006100021B1426842F40062426003E0426822F481
:10062000006242607047F0B504460D46002000218C
:10063000092D11DDE068A5F10A0606EB460707263D
:1006400006FA07F18843A5F10A0606EB460603FA07
:1006500006F10843E0600CE0206905EB450707263A
:1006600006FA07F1884305EB450603FA06F108434D
:100670002061072A0FDA606B561E06EB86071F26DD
:1006800006FA07F18843561E06EB860605FA06F1C0
:100690000843606322E00D2A0FDA206BD61F06EBB9
:1006A00086071F2606FA07F18843D61F06EB860643
:1006B00005FA06F10843206310E0E06AA2F10D0696
:1006C00006EB86071F2606FA07F18843A2F10D06FE
:1006D00006EB860605FA06F10843E062F0BD21B19B
:1006E000826842F48012826003E0826822F4801201
:1006F000826070470146C86C80B2704766484C30D3
:100700000068704721B1426842F48062426003E0B1
:10071000426822F480624260704721B1426842F42C
:100720008052426003E0426822F480524260704787
:100730000A460021816821F4E0411143816070473D
:1007400021B1826842F40042826003E0826822F4B0
:1007500000428260704721B1826842F402128260D6
:1007600003E0826822F40212826070470146002092
:100770008A6812F4001F01D0012000E000207047B9
:10078000F0B504461546002000220026092911DD97
:10079000E068A1F10A0707EB470C072707FA0CF2FC
:1007A0009043A1F10A0707EB470703FA07F210434A
:1007B000E0600CE0206901EB410C072707FA0CF21E
:1007C000904301EB410703FA07F210432061A06B4D
:1007D000C0F30156EF1C06F1010CA7EB0C0707EB69
:1007E000870C1F2707FA0CF29043EF1C06F1010C4F
:1007F000A7EB0C0707EB870701FA07F21043A0638A
:10080000F0BD10B50A4600210023816B21F4401190
:10081000531E41EA0351816310BD08B500230093C4
:100820000090009B0B440093009B1A6008BD08B524
:10083000024600200090009201F12800009B18441D
:1008400000900098006880B208BD0A460021416807
:10085000164B1940114341607047416282627047F4
:100860000A460021416821F01F0111434160704791
:1008700040B109490831096841F40001064A0832CB
:10088000116007E004490831096821F40001024AB7
:100890000832116070470000002401400028014028
:1008A000003C0140FFFEF0FFFDF7F1FFFFFD3FFFC1
:1008B0000246002013680B4201D0012000E0002016
:1008C0007047CA430260704770B50246002000239B
:1008D00000240B125568CEB205EA060415681D42C5
:1008E00002D00CB1012000E0002070BD00220A12ED
:1008F000D34303607047000010B50446CA488442E1
:1009000008D10121042000F034FB0021042000F074
:1009100030FB46E0C548844208D10121082000F0A0
:1009200028FB0021082000F024FB3AE0C048844264
:1009300008D10121102000F01CFB0021102000F044
:1009400018FB2EE0BB48844208D10121202000F092
:1009500010FB0021202000F00CFB22E0B64884426E
:1009600008D10121402000F004FB0021402000F0CC
:1009700000FB16E0B148844208D10121802000F03C
:10098000F8FA0021802000F0F4FA0AE0AC48844232
:1009900007D10121801500F0ECFA0021A01500F02C
:1009A000E8FA10BD10B50121084600F0E2FA002176
:1009B000012000F0DEFA10BD2DE9F04102460025CD
:1009C0000026002000230024002791F803C00CF02B
:1009D0000F0591F803C01CF0100F03D091F802C06E
:1009E0004CEA050591F800C0BCF1000F31D0146845
:1009F00000202BE04FF0010C0CFA00F3B1F800C01E
:100A00000CEA03069E4220D183004FF00F0C0CFA33
:100A100003F7BC4305FA03FC4CEA040491F803C055
:100A2000BCF1280F06D14FF0010C0CFA00FCC2F803
:100A300014C00AE091F803C0BCF1480F05D14FF093
:100A4000010C0CFA00FCC2F810C0401C0828D1D3DD
:100A50001460B1F800C0BCF1FF0F34DD5468002011
:100A60002EE000F1080C4FF0010808FA0CF3B1F881
:100A700000C00CEA03069E4221D183004FF00F0C08
:100A80000CFA03F7BC4305FA03FC4CEA040491F8A2
:100A900003C0BCF1280F05D100F1080C08FA0CF8CE
:100AA000C2F8148091F803C0BCF1480F07D100F1DF
:100AB000080C4FF0010808FA0CF8C2F81080401C2E
:100AC0000828CED35460BDE8F0814FF6FF71018055
:100AD000022181700421C170704702460020936892
:100AE0000B4201D0012000E00020704701468868D9
:100AF00080B2704702460020D3680B4201D001202B
:100B000000E0002070470146C86880B2704701616C
:100B10007047416170470AB1016100E0416170476F
:100B2000C16070474FF480320A4382618161826103
:100B300082698269704702460020424B18684FF66E
:100B40008073184040EA021008433E4B186070471B
:100B50003D49C8617047F0B50A46002300240021D2
:100B6000002500F00046B6F1004F02D1354EF16984
:100B700001E0344E7168C0F3034583B200F44016BF
:100B8000B6F5401F08D121F070612E4E766826F030
:100B900070662C4F7E6012E000F48016B6F5801F60
:100BA00006D1032606FA05F4A14341F0706106E080
:100BB000460D360103FA06F6B14341F0706122B1E9
:100BC000460D360103FA06F6314300F00046B6F151
:100BD000004F02D11B4EF16101E01A4E7160F0BD71
:100BE00030B500228B071C0F0F2303FA04F2154BBC
:100BF00008338C1053F824309343124C08348D1072
:100C000044F8253023468C1053F824308C07240FE9
:100C100000FA04F423430B4C08348D1044F82530BB
:100C200030BD0A490860704700080140000C0140CF
:100C3000001001400014014000180140001C014058
:100C4000002001400000014000002042DC00204262
:100C5000E448006840F00100E24908600846406846
:100C6000E1490840DF49486008460068DF4908401C
:100C7000DC4908600846006820F4802008600846C7
:100C8000406820F4FE0048604FF41F008860002098
:100C9000C8627047D349096821F48031D14A116094
:100CA0001146096821F480211160B0F5803F03D01E
:100CB000B0F5802F0ED106E0CA49096841F48031B1
:100CC000C84A116007E0C749096841F4A021C54A34
:100CD000116000E000BF00BF704710B50146002260
:100CE000002300204A11012A02D1BE4C236806E0ED
:100CF000022A02D1BB4C236A01E0BA4C636A01F0BC
:100D00001F02012494401C4201D0012000E0002079
:100D100010BD38B5002000900024002500BF312010
:100D2000FFF7DBFF05460098401C00900098B0F5E7
:100D3000A06F01D0002DF2D03120FFF7CEFF08B117
:100D4000012400E00024204638BD01460020A54AC9
:100D5000106820F0F80040EAC10010607047A44914
:100D600008607047024600209E4B586820F47410BB
:100D700042EA010318439B4B586070479C49086640
:100D8000704702460020974BD86A9A4B184042EAB7
:100D900001031843934BD862704701460020914AE3
:100DA000506820F003000843506070478D48406849
:100DB00000F00C007047014600208A4A506820F07D
:100DC000F00008435060704701460020854A506893
:100DD00020F4E06008435060704701460020814ADB
:100DE000506820F4605040EAC1005060704729B15B
:100DF0007C4A527A02437B4B5A7204E0794A527A17
:100E00008243784B5A7270477B49086070470146AD
:100E10000020744A506820F44040084350607047F6
:100E20000021764A11706F4A82F82010012802D002
:100E3000042808D103E00121704A117004E0052163
:100E40006E4A117000E000BF00BF70476C49086037
:100E500070476449096A0143624A116270476849F0
:100E600044390860704770B5002100230024002237
:100E700000255C4E766806F00C0121B1042905D0EE
:100E8000082921D105E05F4E066020E05D4E066036
:100E90001DE0544E766806F47013524E766806F4E0
:100EA0008034022606EB93431CB9574E5E4306601E
:100EB00009E04C4EF66A06F00F06751C514EB6FB63
:100EC000F5F65E43066002E04E4E066000BF00BFCE
:100ED000444E766806F0F00109094C4E725C0668D3
:100EE000D64046603F4E766806F4E061090A474EF8
:100EF000725C4668D64086603A4E766806F4605169
:100F0000C90A424E725C4668D640C660354E766865
:100F100006F44041890B3E4E725CC668B6FBF2F6A1
:100F2000066170BD29B12F4A526902432D4B5A61A7
:100F300004E02C4A526982432A4B5A61704729B116
:100F4000284A92690243274B9A6104E0254A926934
:100F50008243244B9A61704729B1224AD2690243E5
:100F6000204BDA6104E01F4AD26982431D4BDA61EB
:100F7000704729B11B4AD26802431A4BDA6004E079
:100F8000184AD2688243174BDA60704729B1154A74
:100F900012690243134B1A6104E0124A1269824338
:100FA000104B1A6170471649403908607047104964
:100FB000C86470470B49C87170470A48406A40F0DE
:100FC000807008494862704701460020054A9268CF
:100FD0000A4201D0012000E00020704701498872D8
:100FE00070470000001002400000FFF8FFFFF6FE0F
:100FF00000004242F0FFFEFFD800424220100240B3
:101000008004424200127A0000093D0014000020D2
:101010002400002010B50446FE48844208D1012176
:10102000C014FFF7A6FF0021E014FFF7A2FFC4E001
:10103000B4F1804F08D101210846FFF7A7FF002136
:101040000120FFF7A3FFB8E0F348844208D1012153
:101050000220FFF79BFF00210220FFF797FFACE083
:10106000EE48844208D101210420FFF78FFF0021C0
:101070000420FFF78BFFA0E0E948844208D101215A
:101080000820FFF783FF00210820FFF77FFF94E08F
:10109000E448844208D101211020FFF777FF0021A6
:1010A0001020FFF773FF88E0DF48844208D1012158
:1010B0002020FFF76BFF00212020FFF767FF7CE077
:1010C000DA48844208D101214014FFF752FF002181
:1010D0006014FFF74EFF70E0D548844209D101212A
:1010E000C804FFF746FF00214FF40020FFF741FF3F
:1010F00063E0D048844209D101210805FFF739FF98
:1011000000214FF48010FFF734FF56E0CA488442B4
:1011100009D101214805FFF72CFF00214FF40010F1
:10112000FFF727FF49E0C548844208D1012140204C
:10113000FFF72CFF00214020FFF728FF3DE0C048CB
:10114000844208D101218020FFF720FF0021802068
:10115000FFF71CFF31E0BB48844208D10121801514
:10116000FFF714FF0021A015FFF710FF25E0B64898
:10117000844209D101210804FFF7FBFE00214FF44E
:101180008030FFF7F6FE18E0B048844209D1012113
:101190004804FFF7EEFE00214FF40030FFF7E9FEB0
:1011A0000BE0AB48844208D101218804FFF7E1FE3F
:1011B00000214FF48020FFF7DCFE10BD00220288E2
:1011C000944B98420ED0994B98420BD0B0F1804F7F
:1011D00008D0914B984205D0904B984202D0904B4A
:1011E000984204D14FF68F731A404B881A438D4BA7
:1011F000984207D08C4B984204D04FF6FF431A40D8
:10120000CB881A4302808B8883850B880385814BAA
:1012100098420BD0854B984208D08B4B984205D012
:101220008A4B984202D08A4B984201D10B7A0386AE
:1012300001238382704770B5002400220023058CAF
:101240004FF6FE7635400584028C8388048B4FF67A
:101250008F752C40B51E2C400D882C43751E2A40DE
:101260000D892A434D882A436A4DA8420BD06F4D01
:10127000A84208D0744DA84205D0744DA84202D0AF
:10128000734DA84213D14FF6F7752A404D892A4372
:101290004FF6FB752A408D882A434FF6FF652B4099
:1012A0004FF6FF552B408D892B43CD892B438380EF
:1012B0000483CD888586028470BD70B50024002229
:1012C0000023058C4FF6EF7635400584028C838829
:1012D000048B48F6FF752C404FF6FF452C400D88D7
:1012E0004FF6FF7606EA05252C434FF6DF752A40B8
:1012F0000D8906EA05152A434D8806EA05152A4395
:10130000444DA84202D0494DA8421DD14FF67F75E9
:101310002A404D894FF6FF7606EA05152A434FF617
:10132000BF752A408D8806EA05152A434FF6FF351A
:101330002B404FF2FF752B408D8906EA85052B4324
:10134000CD8906EA85052B4383800483CD880587F4
:10135000028470BD70B5002400220023058C4FF676
:10136000FF6635400584028C8388848B4FF68F7529
:101370002C404FF6FC752C400D882C434FF6FF5542
:101380002A400D894FF6FF7606EA05252A434D8847
:1013900006EA05252A431F4DA84202D0234DA84244
:1013A0001DD14FF2FF752A404D894FF6FF7606EAB0
:1013B00005252A434FF6FF352A408D8806EA052584
:1013C0002A434EF6FF752B404DF6FF752B408D8955
:1013D00006EA05152B43CD8906EA05152B438380C4
:1013E0008483CD888587028470BD70B50022002378
:1013F0000024058C4EF6FF7635400584038C8488E6
:10140000828B48F6FF752A404FF6FF452A400D882B
:1014100020E00000002C01400004004000080040D3
:10142000000C004000100040001400400034014057
:10143000004C0140005001400054014000180040A1
:10144000001C0040002000400040014000440140DA
:10145000004801404FF6FF7606EA05252A434DF67F
:10146000FF752B400D8906EA05352B434D8806EAAA
:1014700005352B43FA4DA84202D0FA4DA84208D1B7
:101480004BF6FF752C408D894FF6FF7606EA8515E1
:101490002C4384808283CD88A0F84050038470BDA3
:1014A000828B4FF2FF331A408283828B4FF6FF7399
:1014B00003EA01231A4382837047F0B50C461546B0
:1014C000002200210026078C4EF6FF7C07EA0C075D
:1014D0000784828B018C4FF6FF7707EA043640F6CB
:1014E000FF473A404FF6FF7707EA05273A434FF6A2
:1014F000FF7707EA03373A43D94FB8420ED0D94FA6
:10150000B8420BD0B0F1804F08D0D74FB84205D0C9
:10151000D64FB84202D0D64FB84206D14DF6FF772B
:10152000394046F48057394305E047F6FF573940C4
:1015300044F48057394382830184F0BD828B4FF697
:10154000F3731A408283828B0A4382837047F0B51B
:101550000C461546002200210026078C4FF6FF6C32
:1015600007EA0C070784828B018C4FF6FF7707EAA6
:1015700004264FF60C773A404FF6FF7707EA031739
:101580002F433A43B64FB8420ED0B64FB8420BD0B5
:10159000B0F1804F08D0B44FB84205D0B34FB84235
:1015A00002D0B34FB84206D14FF6FF57394046F448
:1015B0008077394305E04FF2FF57394044F4807794
:1015C000394382830184F0BD028B4FF2FF331A400E
:1015D0000283028B4FF6FF7303EA01231A4302834F
:1015E0007047F0B50C461546002200210026078CF6
:1015F0004FF6EF7C07EA0C070784028B018C4FF64D
:10160000FF7707EA041640F6FF473A404FF6FF77A8
:1016100007EA03373A434FF6FF7707EA05273A43CD
:101620008F4FB8420ED08F4FB8420BD0B0F1804FE1
:1016300008D08D4FB84205D08C4FB84202D08C4FA5
:10164000B84206D14FF6DF77394046F010073943EC
:1016500005E04FF65F77394044F0100739430283C5
:101660000184F0BD028B4FF6F3731A400283028BA4
:101670000A4302837047F0B50C461546002200214C
:10168000068C4FF6FE773E400684028B018C4FF6A7
:101690000C7632407E1C06EA03162E433243704E0F
:1016A000B0420ED06F4EB0420BD0B0F1804F08D098
:1016B0006D4EB04205D06D4EB04202D06C4EB0427D
:1016C00006D14FF6FD76314044F00106314305E086
:1016D0004FF6F576314044F0010631430283018430
:1016E000F0BD70B505460C465D4885420ED05D489C
:1016F00085420BD0B5F1804F08D05B48854205D0BC
:101700005A48854202D05A48854200D100E000BFC5
:10171000208850B92389A28861882846FFF7ABFF4B
:10172000E1882846FFF79EFF25E0208804280AD19B
:101730002389A28861882846FFF753FFE18828465D
:10174000FFF742FF17E0208808280AD12389A288E2
:1017500061882846FFF7FBFEE1882846FFF7EEFE8A
:1017600009E02389A28861882846FFF7A6FEE18860
:101770002846FFF795FE70BD2DE9F04105460C4661
:1017800000260127608808B9022600E00026A0880C
:10179000012801D1022700E001272088A0B9238970
:1017A000A28861882846FFF766FFE1882846FFF790
:1017B00059FF23893A4631462846FFF712FFE18850
:1017C0002846FFF701FF13E02389A2886188284695
:1017D000FFF707FFE1882846FFF7F6FE23893A4620
:1017E00031462846FFF747FFE1882846FFF73AFFD2
:1017F000BDE8F0810A884B881A438B881A43CB884E
:101800001A430B891A434B891A438B891A43A0F850
:10181000442070474FF6FF71818000210180C18014
:101820004180017270470021018041808180C18028
:10183000018141818181C181704700210180418006
:10184000012181800021C180018170470021018038
:1018500041808180C1800181418181817047000088
:10186000002C01400034014000040040000800400A
:10187000000C004021B1028842F00102028004E025
:1018800002884FF6FE731A400280704731B1B0F8FB
:10189000442042F40042A0F8442005E0B0F844207F
:1018A000C2F30E02A0F8442070471AB183890B439B
:1018B000838102E083898B438381704781827047F3
:1018C00041EA0203A0F8483070471AB183890B43FC
:1018D000838102E083898B438381704701894FF6BE
:1018E000F8721140018170470A46002101894FF6C4
:1018F0008F73194011430181704730B504460D467E
:1019000029462046FFF7F0FF208940F0070020819C
:1019100030BD2DE9F04104460D4616461F46602DA8
:1019200006D13B46012231462046FFF75AFE05E02C
:101930003B46012231462046FFF79DFE29462046C0
:10194000FFF7D2FF208940F007002081BDE8F08139
:1019500030B50C4600210189C9B24FF6FF7505EA82
:101960000325154325432943018130BD2DE9F0416D
:1019700005460E4617469846002443463A463146E9
:101980002846FFF7E5FF2C894FF6F870044044F035
:1019900007044FF68F70044044F070042C81BDE8BA
:1019A000F081F0B504460D4616461F463B463246CA
:1019B00029462046FFF7CCFF208940F48040208153
:1019C000F0BD0185828270470A46002101884FF6EA
:1019D0008F731940114301807047F0B50C461546CE
:1019E0001E460021002200230189028B038C4FF642
:1019F000F877394021434FF6FC473A4040F201174F
:101A00003A434FF6DD773B404FF6FF7707EA06177C
:101A10002F433B43018102830384F0BD0A4600212A
:101A2000018B4FF68F7319401143018370470A46AB
:101A30000021018B48F6FF7319404FF6FF7303EA4C
:101A400002231943018370470A460021818B4FF618
:101A50008F7319401143818370470A460021818B9F
:101A600048F6FF7319404FF6FF7303EA0223194348
:101A70008183704721B1028842F08002028004E035
:101A800002884FF67F731A400280704721B1828826
:101A900042F00402828004E082884FF6FB731A4011
:101AA0008280704721B1828842F00802828004E07F
:101AB00082884FF6F7731A408280704721B182887E
:101AC00042F00102828004E082884FF6FE731A40E1
:101AD000828070470A460021018B4FF6F773194048
:101AE0001143018370470A460021018B4FF2FF73B7
:101AF00019404FF6FF7303EA02231943018370472D
:101B00000A460021818B4FF6F773194011438183F8
:101B100070470A460021818B4FF2FF7319404FF640
:101B2000FF7303EA02231943818370470A460021A9
:101B3000018B4FF6FB7319401143018370470A462E
:101B40000021018B4FF6FF3319404FF6FF7303EA74
:101B500002231943018370470A460021818B4FF607
:101B6000FB7319401143818370470A460021818B22
:101B70004FF6FF3319404FF6FF7303EA0223194370
:101B8000818370470A460021018B4FF67F7319400D
:101B90001143018370470A460021018BC1F30E01F6
:101BA0004FF6FF7303EA02231943018370470A4685
:101BB0000021818B4FF67F73194011438183704759
:101BC0000A460021818BC1F30E014FF6FF7303EA31
:101BD00002231943818370470A460021018C4FF686
:101BE000FD7319401143018470470A460021018C9E
:101BF0004FF6F77319401143018470470A460021DC
:101C0000018C4FF6DF7319404FF6FF7303EA02139E
:101C10001943018470470A460021018C4FF67F73F7
:101C200019404FF6FF7303EA02131943018470470A
:101C30000A460021018C4FF6FF5319404FF6FF73FF
:101C400003EA02231943018470470A460021018CEC
:101C50004FF2FF7319404FF6FF7303EA0223194353
:101C6000018470470A460021018C4DF6FF7319402C
:101C70004FF6FF7303EA023319430184704730B50E
:101C8000002301248C40A3B2048C9C430484048C64
:101C900002FA01F5ADB22C43048430BD30B5002307
:101CA00004248C40A3B2048C9C430484048C02FA68
:101CB00001F5ADB22C43048430BD70B5034600205D
:101CC00000241846183001258D40ACB21D8CA54368
:101CD0001D8409B1082909D100EB6100056825F0D0
:101CE000700505600568154305600EE00D1FC5F31E
:101CF0004E052844056825F4E045056005684FF663
:101D0000FF7606EA02263543056070BD21B10288E0
:101D100042F00202028004E002884FF6FD731A408E
:101D20000280704721B1028842F00402028004E080
:101D300002884FF6FB731A400280704721B18288F7
:101D400042F08002828004E082884FF67F731A405E
:101D50008280704702884FF6F7731A40028002882B
:101D60000A430280704782884FF68F731A40828040
:101D700082880A438280704702894FF6F8731A40BE
:101D8000028102890A430281704702894FF67F73FC
:101D90001A40028102890A43028170478184704798
:101DA00081857047818670470187704781877047BA
:101DB000A0F84010704702884FF6FF431A40028097
:101DC00002880A43028070470146888E70470146A8
:101DD000088F70470146888F70470146B1F8400070
:101DE00070470146888C70470146088D704702464F
:101DF0000020138A0B4201D0012000E00020704730
:101E0000CA430282704730B50246002000230024F6
:101E1000158A05EA0103958905EA010413B10CB19D
:101E2000012000E0002030BDCA430282704700005C
:101E300010B50446FB48844209D101218803FFF70D
:101E400098F800214FF48040FFF793F832E0F6480D
:101E5000844209D101214804FFF798F800214FF48A
:101E60000030FFF793F825E0F048844209D10121C2
:101E70008804FFF78BF800214FF48020FFF786F8E5
:101E800018E0EB48844209D10121C804FFF77EF82D
:101E900000214FF40020FFF779F80BE0E548844279
:101EA00008D101210805FFF771F800214FF48010D7
:101EB000FFF76CF810BD2DE9F04786B005460E46D9
:101EC0000024A24600BFA1460027B08900B100BF90
:101ED0002F462C8A4CF6FF700440F08804432C8275
:101EE000AC894EF6F3100440B088318908437189FB
:101EF00008430443AC81AC8A4FF6FF400440B089EC
:101F00000443AC8201A8FEF7AEFFC648874202D167
:101F1000DDF810A001E0DDF80CA0A88910F4004F56
:101F200008D00AEBCA0000EB0A1031684900B0FB88
:101F3000F1F807E00AEBCA0000EB0A1031688900EB
:101F4000B0FBF1F86420B8FBF0F004012009642133
:101F500001FB1089A88910F4004F08D0322000EB53
:101F6000C900B0FBF1F000F00700044308E03220A4
:101F700000EB09106421B0FBF1F000F00F00044306
:101F80002C8106B0BDE8F0874FF4165101600021A6
:101F90008180C18001810C214181002181817047B4
:101FA00010B502460020108A4FF2FF0318400B883C
:101FB0004C8823438C882343CC88234318431082C6
:101FC00010BD0021018041808180C180704721B116
:101FD000828942F40052828104E082894DF6FF73C7
:101FE0001A4082817047F0B5034600240026002580
:101FF0000020A1F510676A3F00D100BF1846C1F369
:10200000421401F01F06012707FA06F5012C01D141
:102010000C3004E0022C01D1103000E014301AB171
:1020200007682F43076002E00768AF430760F0BD11
:102030001AB1838A0B43838202E0838A8B438382B3
:102040007047028A4FF6F0731A400282028A0A43EE
:102050000282704782894FF2FF731A40828182891F
:102060000A438281704721B1828942F00202828153
:1020700004E082894FF6FD731A4082817047028A1C
:102080004FF6DF731A400282028A0A4302827047C7
:1020900021B1028A42F48042028204E0028A4BF6B5
:1020A000FF731A4002827047C1F3080282807047B2
:1020B00001468888C0F308007047818941F001011A
:1020C00081817047028BD2B20283028B42EA0122E5
:1020D00002837047028B02F47F420283028B0A4321
:1020E0000283704721B1828A42F02002828204E09A
:1020F000828A4FF6DF731A408282704721B1828A4A
:1021000042F01002828204E0828A4FF6EF731A4096
:102110008282704721B1828A42F00802828204E002
:10212000828A4FF6F7731A408282704721B1828902
:1021300042F40042828103E08289C2F30E0282816E
:10214000704721B1828A42F40062828204E0828A6E
:102150004FF2FF731A4082827047828A4FF6FB73F8
:102160001A408282828A0A438282704721B1828A1F
:1021700042F00202828204E0828A4FF6FD731A4026
:102180008282704702460020B1F5007F00D100BF77
:1021900013880B4201D0012000E00020704701F4B9
:1021A0000072B2F5007F00D100BFCA4302807047C1
:1021B00070B502460024002300250020A1F510661A
:1021C0006A3E00D100BFC1F3421501F01F03012692
:1021D00006FA03F3012D02D19689334006E0022D61
:1021E00002D1168A334001E0968A33400C12012650
:1021F00006FA04F41688344013B10CB1012000E053
:10220000002070BD10B500220023A1F510646A3CC7
:1022100000D100BF0A1201249440A3B2DC43048021
:1022200010BD00000038014000440040004800405C
:10223000004C004000500040704710B501464888EF
:10224000142810DA488810F0010F06D001224C88BB
:10225000601E00EBD074631007E00022488800EB9A
:10226000D074631001E0042010BD0888012804D058
:1022700002280ED0032824D117E002EBC20000EBA5
:102280000210FA4C04EBC00003EB830410F82400A6
:10229000EAE702EBC20000EB0210F54C04EBC000D1
:1022A00003EB830410F82400DEE702EBC20000EB2E
:1022B0000210F04C04EBC00003EB830410F8240080
:1022C000D2E70420D0E710B5002450E004EB8400EE
:1022D000E64911F82000012848D104EB840001EB05
:1022E0008000C068401E04EB8401E04A02EB8101DB
:1022F000C86004EB8400114601EB8000C06838BB65
:1023000004EB840102EB81010869804704EB84003F
:10231000D64901EB8000407802280BD104EB840001
:1023200001EB8000806804EB8401D04A02EB81015C
:10233000C8601BE004EB8400CC4901EB80004078CE
:10234000012806D1002004EB8401C84A02F82100CC
:102350000CE004EB8400C54901EB800040780328C1
:1023600004D104EB8401C14A02F82100641C0A2C48
:10237000ACD310BD10B5002460E004EB8401BB4871
:10238000C83010F82100012857D104EB8401B74868
:10239000C83000EB8100C068401E04EB8402B349E2
:1023A000C83101EB8201C86004EB8401AF48C8303A
:1023B00000EB8100C06878BB04EB8402AB49C831F4
:1023C00001EB82010869804704EB8401A748C8300B
:1023D00000EB8100407802280ED104EB8401A34871
:1023E000C83000EB8100816804EB84029F48C8304C
:1023F00000EB8200C16020E004EB84019B48C83000
:1024000000EB81004078012807D1002104EB840211
:102410009648C83000F822100FE004EB840193487E
:10242000C83000EB81004078032806D1032104EB7B
:1024300084028E48C83000F82210641C0A2C9CD3F9
:1024400010BD10B5002450E004EB8400884911F859
:102450002000012848D104EB840001EB8000C06813
:10246000401E04EB8401824A02EB8101C86004EB48
:102470008400114601EB8000C06838BB04EB840186
:1024800002EB81010869804704EB8400784901EB85
:102490008000407802280BD104EB840001EB80001F
:1024A000806804EB8401724A02EB8101C8601BE082
:1024B00004EB84006E4901EB80004078012806D1CE
:1024C000002004EB84016A4A02F821000CE004EBCE
:1024D0008400674901EB80004078032804D104EBB5
:1024E0008401634A02F82100641C0A2CACD310BD9D
:1024F00010B5002460E004EB84015D48C83010F89A
:102500002100012857D104EB84015948C83000EB61
:102510008100C068401E04EB84025549C83101EBBC
:102520008201C86004EB84015148C83000EB81008F
:10253000C06878BB04EB84024D49C83101EB8201CD
:102540000869804704EB84014948C83000EB8100EA
:10255000407802280ED104EB84014548C83000EBD6
:102560008100816804EB84024148C83000EB82009E
:10257000C16020E004EB84013D48C83000EB8100DD
:102580004078012807D1002104EB84023848C83084
:1025900000F822100FE004EB84013548C83000EB4E
:1025A00081004078032806D1032104EB84023048DF
:1025B000C83000F82210641C0A2C9CD310BD10B542
:1025C000002450E004EB84002A4911F8200001287F
:1025D00048D104EB840001EB8000C068401E04EB8E
:1025E0008401244A02EB8101C86004EB8400114697
:1025F00001EB8000C06838BB04EB840102EB810171
:102600000869804704EB84001A4901EB8000407898
:1026100002280BD104EB840001EB8000806804EBFE
:102620008401144A02EB8101C8601BE004EB8400C2
:10263000104901EB80004078012806D1002004EB0E
:1026400084010C4A02F821000CE004EB84000949E3
:1026500001EB80004078032804D104EB8401054A93
:1026600002F82100641C0A2CACD310BD3C010020F0
:10267000CC0200205C04002010B5002454E004EBE0
:102680008401FE4810F8210001284CD104EB84019C
:10269000FA4800EB8100C068401E04EB8402F74951
:1026A00001EB8201C86004EB8401F44800EB810077
:1026B000C06848BB04EB8402F04901EB8201086961
:1026C000804704EB8401ED4800EB8100407802284C
:1026D0000CD104EB8401E94800EB8100816804EB34
:1026E0008402E64800EB8200C1601CE004EB840138
:1026F000E24800EB81004078012806D1002104EB7C
:102700008402DE4800F822100DE004EB8401DB486F
:1027100000EB81004078032805D1032104EB8402FB
:10272000D64800F82210641C0A2CA8D310BD2DE94D
:10273000FF5F82460E4693460A20B6FBF0F100FB8F
:1027400011600290029808B90A2E00D2B0E0642EFF
:1027500028D2CB480088CA494988884205D1C84850
:102760000088052801DA002410E0C5480088C44923
:102770004988884201DD012408E0C1480088C04939
:102780004988884201DA002400E091E0BC4800EB6F
:10279000440804EBC40000EB0410BA4901EBC00587
:1027A000012754E0B6F57A7F28D2B7480088B649A9
:1027B0004988884205D1B4480088052801DA0024F8
:1027C00010E0B1480088B0494988884201DD012401
:1027D00008E0AD480088AC494988884201DA002405
:1027E00000E065E0A84800EB440804EBC40000EBFF
:1027F0000410A64901EBC0050A2728E0A448008878
:10280000A3494988884205D1A1480088052801DAF2
:10281000002410E09E4800889D494988884201DDD7
:10282000012408E09A48008899494988884201DAD9
:10283000002400E03CE0964800EB440804EBC400B0
:1028400000EB04108D49C83901EBC00564274FF037
:10285000000929E0287820BB00F052FE01202870F2
:1028600085F801B007EB87004000B6FBF0F0A860E8
:1028700007EB87004000B6FBF0F0E860C5F810A059
:10288000B8F80000401CA8F8000000F033FE68888B
:10289000ADF80400A888ADF80600019804B0BDE8C2
:1028A000F09F143509F10109B9F10A0FD2D300BF25
:1028B0004FF6FF70ADF80C00ADF80E00BDF80C003F
:1028C000ADF80000BDF80E00ADF802000098E5E795
:1028D00070B506467088142810DA708810F0010F61
:1028E00006D001247188481E00EBD0714D1007E01E
:1028F0000024708800EBD0714D1001E0002070BD05
:102900003088012804D0022842D003287CD180E0FE
:1029100004EBC40000EB04105A4901EBC00005EBC6
:10292000850110F8210078B300F0EAFD002004EBE7
:10293000C40101EB0411534A02EBC10105EB85020E
:1029400001F8220004EBC40101EB04114D4A02EB33
:10295000C10105EB850201EB8201886004EBC40133
:1029600001EB0411474A02EBC10105EB850201EBC3
:1029700082010861424830F81400401E404921F8A5
:10298000140000F0B7FD02E0FFE70020B7E793E096
:1029900004EBC40000EB04103C4901EBC00005EB64
:1029A000850110F8210080B300F0AAFD002004EB9F
:1029B000C40101EB0411354A02EBC10105EB8502AC
:1029C00001F8220004EBC40101EB04112F4A02EBD1
:1029D000C10105EB850201EB8201886004EBC401B3
:1029E00001EB0411294A02EBC10105EB850201EB61
:1029F00082010861244830F81400401E224921F861
:102A0000140000F077FD03E054E0FFE7002076E7D4
:102A100052E004EBC40000EB04101849C83901EB84
:102A2000C00005EB850110F8210030B300F068FD0F
:102A3000002004EBC40101EB0411104AC83A02EB78
:102A4000C10105EB850201F8220004EBC40101EB92
:102A500004110A4AC83A02EBC10105EB850201EBF9
:102A60008201886004EBC40101EB0411034AC83AF7
:102A700002EBC10105EB85020CE018E02405002003
:102A8000280000203C0100202C000020CC02002067
:102A90003000002001EB82010861FB4830F814008F
:102AA000401EF94921F8140000F024FD01E0002047
:102AB00025E701E0002022E700BF01201FE770B5F5
:102AC00000F024FD002461E00020F04921F814000A
:102AD000002558E0002004EBC40101EB0411EC4A8E
:102AE00002EBC10105EB850201F8220004EBC401F1
:102AF00001EB0411E64A02EBC10105EB850201EB93
:102B00008201487004EBC40101EB0411E04A02EBBE
:102B1000C10105EB850201EB8201886004EBC40171
:102B200001EB0411DA4A02EBC10105EB850201EB6E
:102B30008201C86004EBC40101EB0411D44A02EB2A
:102B4000C10105EB850201EB82010861012004EB64
:102B5000C40101EB0411CE4A02EBC10105EB850271
:102B600001EB8201488004EB450081B204EBC40014
:102B700000EB0410C64A02EBC00005EB850200EB37
:102B8000820081806D1C0A2DA4D3641C022C9BD36F
:102B9000002461E00020BF4921F81400002558E01E
:102BA000002004EBC40101EB0411BB4A02EBC1019C
:102BB00005EB850201F8220004EBC40101EB0411CE
:102BC000B54A02EBC10105EB850201EB82014870B9
:102BD00004EBC40101EB0411AF4A02EBC10105EBA8
:102BE000850201EB8201886004EBC40101EB041152
:102BF000A94A02EBC10105EB850201EB8201C86025
:102C000004EBC40101EB0411A34A02EBC10105EB83
:102C1000850201EB82010861022004EBC40101EB93
:102C200004119D4A02EBC10105EB850201EB820113
:102C3000488004EB450081B204EBC40000EB0410B3
:102C4000954A02EBC00005EB850200EB8200818013
:102C50006D1C0A2DA4D3641C022C9BD3002461E0BC
:102C60000020894921F81400002558E0002004EBD9
:102C7000C40101EB0411894A02EBC10105EB850295
:102C800001F8220004EBC40101EB0411834A02EBBA
:102C9000C10105EB850201EB8201487004EBC40120
:102CA00001EB04117D4A02EBC10105EB850201EB4A
:102CB0008201886004EBC40101EB0411774A02EB46
:102CC000C10105EB850201EB8201C86004EBC40180
:102CD00001EB0411714A02EBC10105EB850201EB26
:102CE00082010861032004EBC40101EB04116B4A6B
:102CF00002EBC10105EB850201EB8201488004EB88
:102D0000450081B204EBC40000EB0410634A02EBFF
:102D1000C00005EB850200EB820081806D1C0A2D4E
:102D2000A4D3641C022C9BD35D485E4908605E48B6
:102D300048605E485E4908605E4848605E485F499A
:102D400008605F4848600A465949564800F088FCC8
:102D500018B100F0CFFB012070BD00F0D1FB0020C6
:102D6000FAE71CB504466420444303222146554833
:102D7000FFF7DDFC0190BDF80400ADF80000BDF8E0
:102D80000600ADF8020000981CBD10B504462046B0
:102D9000FFF79EFD10BD10B504462046FFF74DFA23
:102DA000032801D1012010BD0020FCE72DE9F041EE
:102DB00006460F467088142864DA00F0A1FB70887C
:102DC00010F0010F06D001247188481E00EBD0716D
:102DD0004D1004E00024708800EBD0714D10308855
:102DE000012804D002281BD003286DD131E0012036
:102DF00004EBC40101EB0411254A02EBC10105EB10
:102E0000850201F8220004EBC40000EB0410204905
:102E100001EBC00005EB850100EB8100876054E009
:102E2000012004EBC40101EB04111B4A02EBC101B8
:102E300005EB850201F8220004EBC40000EB04104E
:102E4000154901EBC00005EB850100EB81008760AF
:102E50003BE0012004EBC40101EB04110F4A02EB3B
:102E6000C10105EB850201F8220004EBC40000EB70
:102E700004100A4901EBC00005EB850100EB81005D
:102E8000876022E024E01FE03000002028000020BE
:102E90003C0100202C000020CC0200205C0400201B
:102EA000C7220008340000207523000843240008CE
:102EB0003C000020F1240008BF2500084400002049
:102EC000792600083922000800BF00BF00F012FB7D
:102ED000BDE8F08170B504466088142842DA00F03D
:102EE0000FFB608810F0010F06D001256188481E95
:102EF00000EBD0714E1004E00025608800EBD0712B
:102F00004E102088012804D002280FD0032827D192
:102F100019E005EBC50000EB0510F74901EBC00017
:102F200006EB860100EB8100806870BD05EBC500F3
:102F300000EB0510F14901EBC00006EB860100EB48
:102F400081008068F1E705EBC50000EB0510EC4956
:102F500001EBC00006EB860100EB81008068E4E72E
:102F60000020E2E70020E0E71CB50446642044436B
:102F700003222146E348FFF7DAFB0090BDF800008A
:102F8000ADF80400BDF80200ADF8060000BF01A8CE
:102F9000FFF701FF0028FAD001A8FFF7F6FE1CBDDD
:102FA0002DE9F04106460F467088142865DA00F0D6
:102FB000A7FA708810F0010F06D001247188481E0E
:102FC00000EBD0714D1004E00024708800EBD0714C
:102FD0004D103088012804D002281AD0032848D187
:102FE0002FE004EBC40000EB0410C34901EBC00068
:102FF00005EB850110F8210050B104EBC40000EB93
:103000000410BD4901EBC00005EB850100F82170FB
:1030100030E004EBC40000EB0410B84901EBC00041
:1030200005EB850110F8210050B104EBC40000EB62
:103030000410B24901EBC00005EB850100F82170D6
:1030400018E004EBC40000EB0410AD4901EBC00034
:1030500005EB850110F8210050B104EBC40000EB32
:103060000410A74901EBC00005EB850100F82170B1
:1030700000E000BF00BF00F03DFABDE8F08110B5F0
:1030800000F03EFA10BD10B500F034FA10BD10B5D6
:10309000002061E000229C4B23F81020002158E022
:1030A000002200EBC00303EB0013934C04EBC303BB
:1030B00001EB810403F8242000EBC00303EB0013B1
:1030C0008D4C04EBC30301EB810403EB84035A70C2
:1030D00000EBC00303EB0013874C04EBC30301EBCD
:1030E000810403EB84039A6000EBC00303EB00133D
:1030F000814C04EBC30301EB810403EB8403DA602E
:1031000000EBC00303EB00137B4C04EBC30301EBA8
:10311000810403EB84031A61012200EBC00303EB7B
:103120000013754C04EBC30301EB810403EB840330
:103130005A8000EB410293B200EBC00202EB001296
:103140006D4C04EBC20201EB810402EB840293801C
:10315000491C0A29A4D3401C02289BD3002061E00B
:1031600000226A4B23F81020002158E0002200EBD7
:10317000C00303EB0013614C04EBC30301EB8104B8
:1031800003F8242000EBC00303EB00135B4C04EBBB
:10319000C30301EB810403EB84035A7000EBC0030B
:1031A00003EB0013554C04EBC30301EB810403EB69
:1031B00084039A6000EBC00303EB00134F4C04EB55
:1031C000C30301EB810403EB8403DA6000EBC0036B
:1031D00003EB0013494C04EBC30301EB810403EB45
:1031E00084031A61022200EBC00303EB0013434C7B
:1031F00004EBC30301EB810403EB84035A8000EB6F
:10320000410293B200EBC00202EB00123B4C04EB14
:10321000C20201EB810402EB84029380491C0A295B
:10322000A4D3401C02289BD3002061E00022384B2D
:1032300023F81020002158E0002200EBC00303EB2C
:1032400000132F4C04EBC30301EB810403F824208B
:1032500000EBC00303EB0013294C04EBC30301EBA9
:10326000810403EB84035A7000EBC00303EB0013EB
:10327000234C04EBC30301EB810403EB84039A604A
:1032800000EBC00303EB00131D4C04EBC30301EB85
:10329000810403EB8403DA6000EBC00303EB00134B
:1032A000174C04EBC30301EB810403EB84031A61A5
:1032B000032200EBC00303EB0013114C04EBC30328
:1032C00001EB810403EB84035A8000EB410293B2CB
:1032D00000EBC00202EB0012094C04EBC20201EB4E
:1032E000810402EB84029380491C0A29A4D3401C68
:1032F00002289BD310BD00003C010020CC0200201E
:103300005C04002039220008280000202C00002046
:103310003000002010B50446224680216E48FDF79B
:10332000FAFB10BD10B56D480078002871D06C48CC
:1033300000786B490978491C694A1170082873D2D2
:10334000DFE800F004111E2B3845525F6348007817
:1033500010F0010F03D00020FFF7DCFF02E0012096
:10336000FFF7D8FF66E05D480078C0F3400018B171
:103370000020FFF7CFFF02E00120FFF7CBFF59E06D
:1033800056480078C0F3800018B10020FFF7C2FF54
:1033900002E00120FFF7BEFF4CE050480078C0F388
:1033A000C00018B10020FFF7B5FF02E00120FFF7D1
:1033B000B1FF3FE049480078C0F3001018B1002089
:1033C000FFF7A8FF02E00120FFF7A4FF32E0434827
:1033D0000078C0F3401018B10020FFF79BFF02E017
:1033E0000120FFF797FF25E03C480078C0F38010EC
:1033F00018B10020FFF78EFF02E00120FFF78AFFDF
:1034000018E036480078C00905D00020FFF782FF99
:1034100004E010E008E00120FFF77CFF00203049C5
:1034200008702E49087005E000202C4908702C49CE
:10343000087000BF02E00120FFF76CFF2948007808
:10344000401C2849087008460078042812D1002042
:10345000087025480078C043234908700846007862
:1034600020B180212148FDF754FB03E080211F4853
:10347000FDF74DFB10BD1CB501213020FDF75FFDB0
:103480008020ADF8040003208DF8060010208DF890
:10349000070001A91548FDF78FFA8020ADF8040058
:1034A00003208DF8060010208DF8070001A90A48B6
:1034B000FDF782FA0020094908700222FA210C481F
:1034C000FFF735F9009080210848FDF720FB012027
:1034D000FFF720FF1CBD0000001401404F0000203A
:1034E0004E0000204C0000204D0000200010014044
:1034F0002533000810B501216948FEF7BBF910BD5E
:1035000010B500216648FEF7B5F910BD0121654AE6
:103510001180654A1180654A11800021644A11803A
:10352000644A118000200AE00021634A42F820101A
:10353000624A42F82010624A42F82010401C0228D9
:10354000F2D3704710B501215548FEF75CFC002806
:1035500051D057480088401C55490880554800887C
:10356000401C5449088054484E49098850F82100AD
:1035700058B151494B4A128851F8220080474948B6
:1035800001880120884347490880494800880A2863
:1035900014DB4A484449098850F8210028B14749BA
:1035A000414A128851F82200804700204049088093
:1035B0003D480188012088433B4908803D480088F8
:1035C000642814DB3E483949098850F8210028B1A5
:1035D0003B49364A128851F822008047002035497D
:1035E0000880324801880120884330490880012141
:1035F0002B48FEF719FC10BD0EB501210220FDF786
:10360000ABFC40F2F310ADF8040040F2CF20ADF86F
:1036100000000020ADF80600ADF802006946204821
:10362000FDF7CCFD01211E48FEF7FEFB01221146ED
:103630001B48FEF73AF901211948FEF71BF90EBDA8
:1036400008B51D208DF8000000208DF80100012034
:103650008DF802008DF803006846FCF7BCFE08BD3B
:103660002DE9F04105460E46174600240FE055F8B7
:103670002400114941F8240056F824000F4941F86C
:10368000240057F824000E4941F82400641C022C41
:10369000EDD3FFF7B1FFFFF7D3FF0120BDE8F081C5
:1036A0000004004054000020560000205800002074
:1036B00050000020520000205C0000206400002028
:1036C0006C00002008B53120ADF8000000208DF816
:1036D000030069465448FDF76FF90320ADF8000078
:1036E00000208DF8030069465048FDF765F908BDD4
:1036F00000B585B0FFF7E6FF01214FF40670FDF736
:103700001EFC002000908DF804008DF805004FF499
:10371000602002900020039001208DF8100069467F
:103720004348FCF7E8FE01214148FCF7D8FF062397
:1037300001220E213E48FCF776FF062301220F21CD
:103740003B48FCF770FF062301220A213848FCF7AA
:103750006AFF0623012208213548FCF764FF06238F
:10376000012209213248FCF75EFF01213048FCF7B5
:10377000EEFE2F48FCF70DFF00BF2D48FCF70EFFB3
:103780000028FAD12A48FCF713FF00BF2848FCF7AD
:1037900014FF0028FAD105B000BD0146244834309A
:1037A000006820F01F00224A343210601046006882
:1037B000084310601E480830006840F480001C4A2E
:1037C0000832106000BF1A48006810F0020FFAD0EB
:1037D00017484C30006880B270472DE9F0418046B0
:1037E0000C46002500264046FFF7D7FF0544012080
:1037F00000F0AAFC002705E04046FFF7CEFF064494
:10380000781CC7B2A742F7DBB6FBF4F6A81B01D4BD
:10381000014600E04142062902DAA8B2BDE8F08183
:103820004FF6FF70FAE7000000100140000C014065
:103830000024014008B501211020FDF780FB48203D
:103840008DF803000220ADF8000069463648FDF708
:10385000B3F808BD08B501212020FDF770FB482012
:103860008DF803004FF61840ADF8000069462F4868
:10387000FDF7A2F808BD2DE9F041002007460646F5
:10388000054604464FF480612848FDF726F9800676
:10389000050E10212548FDF720F94006060E0821E7
:1038A0002248FDF71AF9074645EA060040EA0704F0
:1038B0002046BDE8F08170B5002005460646044666
:1038C0004FF480511948FDF708F94006060E4FF4F1
:1038D00000611648FDF701F9054646EA0504204651
:1038E00070BD2DE9F0410020074606460546044616
:1038F0004FF400410D48FDF7F0F88006050E4FF437
:1039000080410A48FDF7E9F84006060E4FF40041F1
:103910000648FDF7E2F8074645EA060040EA0704D4
:103920002046BDE8F0810000001001400014014075
:1039300008B51E208DF8000000208DF8010002203F
:103940008DF8020001208DF803006846FCF743FD66
:1039500008BD0EB501210420FDF7FEFA5220ADF896
:1039600004004720ADF800000020ADF80600ADF8D7
:10397000020069468148FDF721FC01217F48FEF7DE
:1039800053FA01217D48FDF775FF0EBD08B50121F1
:103990000420FDF7D4FA04208DF803004020ADF890
:1039A000000069467648FDF707F8FFF7D2FFFFF7FA
:1039B000BFFF08BD08B504208DF803004020ADF816
:1039C000000069466E48FCF7F7FF002201216B48B2
:1039D000FDF76BFF00206B4908706B4908706B495D
:1039E000087008BD10B501216448FEF70CFA0028E4
:1039F0005AD001216148FEF717FA63480078401C4D
:103A00006149087061480078012819D1084600789A
:103A100080280BDD012240215948FDF77CF8022067
:103A20005A4908700020584908703DE0564800780F
:103A3000042839DD002240215148FDF76CF833E0BD
:103A40005248007802282FD151484E490978405CED
:103A5000012809D14C4800780C280EDD00224021B5
:103A60004748FDF758F808E047480078042804DD87
:103A7000002240214248FDF74EF8434800781028C4
:103A80000CDD0020404908703E480078401C3D494C
:103A90000870012240213A48FDF73DF83948007886
:103AA000182801D1FFF786FF10BD08B510208DF84A
:103AB00003004020ADF8000003208DF802006946A5
:103AC0002F48FCF779FF012240212D48FDF723F80C
:103AD00000202C49087001202C4908700122114651
:103AE0002648FDF7E2FE08BDF8B50746002400258C
:103AF00000262648007808B10020F8BD002404E024
:103B0000385D0DF80400601CC4B2032CF8DB0025FE
:103B10001BE0002415E01DF8050010F0800F03D015
:103B200001201B49885502E00020194988551DF8DD
:103B300005004006000E0DF80500701CC6B2601CA2
:103B4000C4B2082CE7DB681CC5B2032DE1DBFFF72C
:103B5000ACFF0120D1E770B50546002407E000BFA7
:103B60002846FFF7C1FF0128FAD1601CC4B2052C1A
:103B7000F5DBAA200749087070BD0000000800406E
:103B8000000801408E000020740000208F000020FB
:103B9000750000204F00002010B501218807FDF7B7
:103BA00069FE10BD10B500214FF08040FDF762FEA8
:103BB00010BD00203249086032490860324908804F
:103BC000704710B501218807FEF71DF9A8B12E48EE
:103BD0000088401C2C4908802948006880472A48F2
:103BE00000880A2805DB274800688047002026490E
:103BF000088001218807FEF717F910BD08B51C20C1
:103C00008DF8000000208DF801008DF802000120E1
:103C10008DF803006846FCF7DEFB08BD0EB50121F8
:103C20000846FDF799F96320ADF8040040F2CF2073
:103C3000ADF800000020ADF80600ADF802006946BE
:103C40004FF08040FDF7BAFA01218807FEF7ECF843
:103C5000012211469007FDF728FE01218807FDF794
:103C600009FE0EBD70B505460C46054805600548C1
:103C70000460FFF7D3FFFFF7C1FF012070BD000014
:103C8000900000209400002098000020704701461A
:103C90004888142801DB04207047088810B10128E7
:103CA0000ED106E0488800EB8000F74A12F82000A9
:103CB000F2E7488800EB8000F44A12F82000EBE7B6
:103CC0000420E9E710B5002451E004EB8400EE493C
:103CD00011F82000012848D104EB840001EB80009A
:103CE000C068401E04EB8401E74A02EB8101C86012
:103CF00004EB8400114601EB8000C06838BB04EB84
:103D0000840102EB81010869804704EB8400DE49ED
:103D100001EB8000407802280BD104EB840001EB1A
:103D20008000806804EB8401D74A02EB8101C860FF
:103D30001BE004EB8400D44901EB800040780128AB
:103D400006D1002004EB8401CF4A02F821000CE0E8
:103D500004EB8400CC4901EB80004078032804D1B7
:103D600004EB8401C84A02F82100601CC4B2142C80
:103D7000ABDB10BD10B5002451E004EB8400C34957
:103D800011F82000012848D104EB840001EB8000E9
:103D9000C068401E04EB8401BC4A02EB8101C8608C
:103DA00004EB8400114601EB8000C06838BB04EBD3
:103DB000840102EB81010869804704EB8400B34968
:103DC00001EB8000407802280BD104EB840001EB6A
:103DD0008000806804EB8401AC4A02EB8101C8607A
:103DE0001BE004EB8400A94901EB80004078012826
:103DF00006D1002004EB8401A44A02F821000CE063
:103E000004EB8400A14901EB80004078032804D131
:103E100004EB84019D4A02F82100601CC4B2142CFA
:103E2000ABDB10BD2DE9FE4F81460D46924615B124
:103E3000B5F57A7F00D33EE095480088142800DD70
:103E400039E00A2D06D90A20B5FBF0F100FB11502C
:103E500000B130E00A2D03D28D4E8B4C012702E0D9
:103E60008C4E8A4C0A274FF0000820E02078D8B901
:103E7000FFF798FE0120207084F801A0B5FBF7F051
:103E8000A060B5FBF7F0E060C4F810903088401CEB
:103E90003080FFF781FE6088ADF80400A088ADF89F
:103EA00006000198BDE8FE8F143408F10108B8F14E
:103EB000140FDBD300BF4FF6FF70ADF80800ADF86C
:103EC0000A00BDF80800ADF80000BDF80A00ADF822
:103ED00002000098E6E710B504466088142801DB6C
:103EE000002010BD208810B101284ED126E0608846
:103EF00000EB8000644911F82000E0B1FFF752FEAA
:103F00000020618801EB81015F4A02F8210061888D
:103F100001EB810102EB81018860618801EB810185
:103F200002EB810108615A480088401E5849088008
:103F3000FFF732FE01E00020D3E728E0608800EBC5
:103F40008000524911F82000E0B1FFF72BFE00205D
:103F5000618801EB81014D4A02F82100618801EB83
:103F6000810102EB81018860618801EB810102EB34
:103F70008101086147480088401E46490880FFF7D4
:103F80000BFE01E00020ACE701E00020A9E700BF44
:103F90000120A6E710B5FFF70CFE00203C49088081
:103FA0003C490880002424E0002004EB8401364AC8
:103FB00002F8210004EB840102EB8101487004EB5C
:103FC000840102EB8101886004EB840102EB810132
:103FD000C86004EB840102EB8101086104EB8401F9
:103FE00002EB8101488004EB840002EB80008480B6
:103FF000641C142CD8D3002424E0002004EB84019A
:10400000224A02F8210004EB840102EB810148708E
:1040100004EB840102EB8101886004EB840102EB74
:104020008101C86004EB840102EB8101086104EBAB
:10403000840102EB8101488004EB840002EB8000E4
:104040008480641C142CD8D3134814490860144885
:10405000144908600846016810480068FFF702FE2E
:1040600018B1FFF799FD012010BDFFF79BFD00205F
:10407000FAE710B504462046FFF709FE032801D1F0
:10408000012010BD0020FCE7EC0500207C0700208B
:104090009C0000209E000020C53C0008A0000020DD
:1040A000753D0008A400002070B504460D466088E8
:1040B000142828DAFFF776FD208810B101281ED1D8
:1040C0000EE00120618801EB8101734A02F82100B2
:1040D000608800EB8000114601EB800085600FE0F6
:1040E0000120618801EB81016C4A02F8210060889F
:1040F00000EB8000114601EB8000856000E000BF0E
:1041000000BFFFF749FD70BD10B504466088142854
:1041100018DAFFF747FD208810B1012810D107E019
:10412000608800EB80005C4901EB8000806810BD76
:10413000608800EB8000594901EB80008068F6E759
:104140000020F4E70020F2E71CB504460A2C16D242
:10415000032221465248FFF765FE0090BDF800009B
:10416000ADF80400BDF80200ADF8060000BF01A8DC
:10417000FFF77FFF0028FAD001A8FFF7ACFE1CBDB7
:1041800070B504460D466088142824DAFFF70AFD4E
:10419000208810B101281AD10CE0608800EB800063
:1041A0003D4911F8200020B1608800EB800001F843
:1041B00020500DE0608800EB8000384911F82000A5
:1041C00020B1608800EB800001F8205000E000BFC3
:1041D00000BFFFF7E1FC70BD10B5FFF7DDFC10BDBF
:1041E00010B5FFF7DFFC10BD00212E4A11802E4ACA
:1041F0001180002024E0002100EB8002264B03F810
:10420000221000EB800203EB8202517000EB80026F
:1042100003EB8202916000EB800203EB8202D1602B
:1042200000EB800203EB8202116100EB800203EBE2
:104230008202518000EB800103EB81018880401CE9
:104240001428D8D3002024E0002100EB8002134B77
:1042500003F8221000EB800203EB8202517000EBA6
:10426000800203EB8202916000EB800203EB82028A
:10427000D16000EB800203EB8202116100EB80024F
:1042800003EB8202518000EB800103EB8101888007
:10429000401C1428D8D37047EC0500207C07002070
:1042A0008D3C00089C0000209E00002038B504468C
:1042B0000D46FE4951F82410FD4A52F824201143BE
:1042C00041F001000121FCF73AFE54B90121082018
:1042D000FCF741FCF74951F824000121FCF73CFEB2
:1042E00005E0F44951F824000121FCF728FE1820CC
:1042F0008DF80300F04830F81400ADF800000320FA
:104300008DF80200ED4951F824006946FCF754FB92
:1043100004208DF80300EA4830F81400ADF80000DE
:10432000E84951F824006946FCF746FBE64951F894
:1043300024002946FDF7BFFDE34951F8240001217F
:10434000FDF745FE38BD1FB54FF4E1300090002069
:10435000ADF80400ADF80600ADF80800ADF80C00AB
:104360000C20ADF80A0069460120FFF79FFF0022EC
:1043700040F22771D548FDF736FE012240F2255163
:10438000D248FDF730FE1FBD08B525208DF800008E
:1043900001208DF801008DF802008DF803006846B9
:1043A000FCF719F808BDCA48007840B10020C94997
:1043B0000870C9490870C9490880C5490870C548CE
:1043C0000078022807D1C5480088C54909680880D7
:1043D0000320C0490870704710B5C2480078C8B1C2
:1043E000C0480078401EBF4908700846007888B968
:1043F000BD48007801280DD10020BB49087000227B
:1044000040F22771B148FDF7EEFD0020B749088062
:10441000B7490860B048007870B1AF480078401ED6
:10442000AD4908700846007830B9AA4800780128DC
:1044300002D10220A749087010BD10B50020A44980
:104440000870AA490880A5490880A7490870FF217B
:10445000A84800F06AFFA848002101604160A54813
:10446000A549486008469E4908600020994908709F
:104470009F4908609B49087097490870002240F2E4
:1044800027719248FDF7AFFD04209C49087010BDCC
:1044900008B5FFF7D2FF022201219948FFF7C2FCBD
:1044A000009002220A219748FFF7BCFC009008BD4B
:1044B00010B5FFF7EDFFFFF767FFFFF744FF10BDF3
:1044C00010B5044600BF90480068FF28FBD08E4816
:1044D0000068FF2810D28D490868411C8B4A116082
:1044E0008B490C5410460068C0B2114608608648DB
:1044F0000068401C84490860012240F2277173481B
:10450000FDF771FD10BD70B504460D46E0B2FFF732
:10451000D7FF204670BD10B57B480068A0B17D482C
:104520000468601C7B4A10607948015D6748FDF7AC
:10453000BBFD75480068401E7349086075480068F7
:10454000C0B27449086005E0002240F227715F485C
:10455000FDF749FD10BD10B500245C48FDF7A8FD2E
:10456000C4B26D48006800282ED10D2C07D16B49CC
:104570006B4A1268885401206749086018E0082CCB
:104580000BD16748006898B166A000F019FF644835
:104590000068401E624908600AE061490868411CE1
:1045A0005F4A11605D490C5421465FA000F008FF8E
:1045B0005B480068FE2807D300205849584A126813
:1045C000885401205449086010BD002054490860F7
:1045D00051490860704710B54548006818B3444811
:1045E0000068008841490988884212DD4048006817
:1045F00040683E4A1288815C3448FDF755FD3B48CF
:104600000088401C394908803C48007835490870CA
:104610000FE0002240F227712C48FDF7E4FC002057
:104620003149087005E0002240F227712748FDF764
:10463000DAFC10BD10B52748007818B1254800787D
:1046400001281BD12348007828B90120214908708E
:104650000020224908801D48FDF72AFD20490968ED
:1046600049681E4A128888541C480088401C1B490F
:104670000880224800781849087002E01348FDF7C6
:1046800017FD10BD10B540F225511048FDF790FD03
:1046900008B1FFF7CFFF08210C48FDF773FD18B1F3
:1046A0000A48FDF705FD41E043E00000D85400084A
:1046B000E0540008D0540008E8540008E800002046
:1046C000EC540008F0000020E00000200038014019
:1046D000BF000020DC000020C1000020CA00002034
:1046E000D0000020C0000020DD000020C800002015
:1046F000CC0000200C090020D4000020C4000020C1
:10470000D9430008A7430008B0000020AC000020F7
:104710000B0A0020A8000020B80000200B0B00208E
:10472000B40000200820080025630000012034495F
:10473000087040F227713348FDF73AFD08B1FFF7E2
:104740004AFF10BD38B504460020009014B32E482F
:104750000078E0B92D480078032815D12C4800686E
:10476000008820802A4B1B681A88294B1B685968CF
:10477000606800F0C1FD00202549096808802349D0
:1047800008700520009007E00420009004E002205B
:10479000009001E0012000909DF8000038BD10B5A8
:1047A00040F227711748FDF703FD012803D0164892
:1047B0000078012801D1012010BD0020FCE710B5D0
:1047C000044600BFFFF7EBFF0028FBD1B4B12088FF
:1047D000002813DD0F4800780F4908700F48046067
:1047E00000200F490880012240F227710548FDF79B
:1047F000FAFB012004490870052010BD0120FCE7E8
:10480000BF00002000380140DD000020DC00002057
:10481000D0000020C4000020C0000020CC000020F8
:10482000C800002038B504460D46ED4951F8241063
:10483000EC4A52F82420114341F001000121FCF719
:104840007EFB54B901210820FCF785F9E64951F8AF
:1048500024000121FCF780FB05E0E34951F8240026
:104860000121FCF76CFB18208DF80300DF4830F8BD
:104870001400ADF8000003208DF80200DC4951F867
:1048800024006946FCF798F804208DF80300D94805
:1048900030F81400ADF80000D74951F824006946FB
:1048A000FCF78AF8D54951F824002946FDF703FBA7
:1048B000D24951F824000121FDF789FB38BD1FB50D
:1048C0004FF4E13000900020ADF80400ADF8060090
:1048D000ADF80800ADF80C000C20ADF80A006946F0
:1048E0000020FFF79FFF002240F22771C448FDF728
:1048F0007AFB012240F22551C148FDF774FB1FBD30
:1049000008B526208DF8000001208DF80100002058
:104910008DF8020001208DF803006846FBF75BFD6F
:1049200008BDB848007840B10020B7490870B749C1
:104930000870B7490880B3490870B3480078022866
:1049400007D1B3480088B349096808800320AE49FD
:104950000870704710B5B0480078C8B1AE4800780C
:10496000401EAD4908700846007888B9AB48007809
:1049700001280DD10020A9490870002240F22771BA
:104980009F48FDF730FB0020A5490880A549086035
:104990009E48007870B19D480078401E9B49087081
:1049A0000846007830B998480078012802D10220E2
:1049B0009549087010BD10B50020924908709849BB
:1049C00008809349088095490870FF21964800F0B7
:1049D000ACFC9648002101604160934893494860CF
:1049E00008468C4908600020874908708D49086096
:1049F0008949087085490870002240F22771804873
:104A0000FDF7F1FA04208A49087010BD08B5FFF7D8
:104A1000D2FF022201218748FFF704FA0090022208
:104A20000A218548FFF7FEF9009008BD10B5FFF791
:104A3000EDFFFFF765FFFFF742FF10BD10B57948A6
:104A4000006818B37748006800887549098888426B
:104A500012DD744800684068714A1288815C6848B9
:104A6000FDF722FB6E480088401C6D4908807048A5
:104A70000078694908700FE0002240F22771604811
:104A8000FDF7B1FA00206549087005E0002240F208
:104A900027715B48FDF7A7FA10BD10B55A4800789A
:104AA00018B15948007801281BD15748007828B917
:104AB0000120554908700020554908805048FDF7ED
:104AC000F7FA544909684968514A1288885450488D
:104AD0000088401C4E490880554800784B490870B2
:104AE00002E04748FDF7E4FA10BD10B540F2255149
:104AF0004348FDF75DFB08B1FFF7CFFF08214048B1
:104B0000FDF740FB28B13E48FDF7D2FA01203D49B0
:104B1000087040F227713A48FDF74AFB08B1FFF7E9
:104B20008DFF10BD38B504460020009014B33B48FB
:104B30000078E0B934480078032815D1354800687A
:104B400000882080334B1B681A88324B1B685968D9
:104B5000606800F0D1FB00202E49096808802A49CE
:104B600008700520009007E00420009004E0022077
:104B7000009001E0012000909DF8000038BD10B5C4
:104B800040F227711E48FDF713FB012803D023488C
:104B90000078012801D1012010BD0020FCE710B5EC
:104BA000044600BFFFF7EBFF0028FBD1B4B120881B
:104BB000002813DD1E480078174908701948046062
:104BC000002017490880012240F227710C48FDF7A8
:104BD0000AFA012011490870052010BD0120FCE7E8
:104BE000D8540008E0540008D0540008E8540008E5
:104BF000E8000020EC540008F0000020E000002055
:104C000000440040FF0000201801002001010020A6
:104C1000FA0000200C0100200001002019010020F2
:104C2000F8000020080100200A0C002010010020DC
:104C30000401002055490008234900082DE9FC41E2
:104C400005460E461746019517B1012F0AD104E01B
:104C50006846FFF777FD044607E06846FFF762FF06
:104C6000044602E00620BDE8FC8100BFBDF800005C
:104C700030802046F7E710B5044614B1012C06D168
:104C800002E0FFF78CFD10BDFFF779FFFBE7002086
:104C9000F9E72DE9FC4106460F461446ADF80070D1
:104CA000019614B1012C0AD104E06846FFF787FD94
:104CB000054607E06846FFF772FF054602E006205A
:104CC000BDE8FC8100BF00BF2046FFF7D4FF0028ED
:104CD000FAD12846F4E700008D48002101607047B2
:104CE0008C49097871B18C490988491C8A4A11801C
:104CF000114609884FF6FE72914206DB1146864A3C
:104D0000118002E00021844A118000201DE08049CA
:104D100001EB80018978B1B17D4901EB800189788F
:104D2000491E7B4A02EB80029170794901EB8001B8
:104D3000897841B9764911F8201021B10121744ACE
:104D400002EB80025170411CC8B20528DFDB7047BE
:104D500008B5FEF7CDFC022264217048FDF7E7FCA0
:104D60000090FFF7B9FF08BD2DE9F04107460D4659
:104D70000024002664213846FEF72FFD0446A4F5E2
:104D80007F40FF3839D040F26450844202DDB4F5F0
:104D9000B96F01DB142C0BDA61480078401C6049C4
:104DA0000870002028705B4908705B49088024E087
:104DB000B4F57A6F01DDFF2600E022262878B042A4
:104DC0000AD157480078401C5549087000205149C5
:104DD00008705149088010E001204E4908704E4883
:104DE00000880A2809DD002008704B4908802E70D1
:104DF0004B480078401C4A490870BDE8F0811CB55A
:104E000048A103C9CDE9000145480078052802DB27
:104E1000002043490870454A414B1B78D118404B4C
:104E20001B781DF80300FFF79FFF1CBD88B07E2292
:104E30008DF8002001228DF8012002228DF8022039
:104E40008DF80300324A02EB8002D2788DF80420FC
:104E5000052108B0704710B531480078401EC4B233
:104E60002B4810F8240088B1294800EB84004078D2
:104E700060B12046FFF7DAFF0020254901EB8401ED
:104E800048701420224901EB8401887010BD10B5D0
:104E9000FFF7B5FF2248007805282BDC2048007872
:104EA000401EC4B22148005D2149095D884221D0DD
:104EB0001E48005DFF2804D1154901EB8401C8702C
:104EC00004E00020124901EB8401C8700120104960
:104ED00001F82400142001EB8401887000200C49A3
:104EE00001EB840148702046FFF7A0FF0F48005DEA
:104EF0000F490855FFF7AFFF10BD0D490A68026062
:104F00000979017170470021014A02F820107047A9
:104F1000090D00202501002026010020E14C000899
:104F20001A0100200E0F0A080900000020010020CD
:104F30001B01002010B5FFF779FD40F20111724806
:104F400000F0F3F94FF48171704800F0EEF940F28F
:104F500009116F4800F0E9F96B48801C6D49086041
:104F600000206D49087010BD0120704710B5012266
:104F7000654968480068FFF761FE05280FD1FFF713
:104F8000F3FF01280DD1604880787E2805D15E4866
:104F90000079032805DB002010BD0020FCE700207D
:104FA000FAE70120F8E710B55B48007820B1012846
:104FB0000DD0022851D11EE054480078012802D1BA
:104FC0005549087002E002205349087049E04F48F3
:104FD000B0F801402246C11C4D4800F08DF9012275
:104FE00021464B48FFF755FE002048490870022033
:104FF0004949087035E0FFF7B9FF012829D1424837
:10500000C078012802D003281ED113E03E49097957
:10501000424A52F8210080473C48B0F801402246FD
:10502000C11C3B4800F068F9012221463848FFF7CF
:1050300030FE0DE034490979384A52F821008047A2
:1050400000203549087003E000203349087000BF94
:1050500002E000203049087003E000202E4908706B
:1050600000BF00BF10BD70B504460D46274800784C
:1050700010B14FF0FF3070BDFF2C02DD6FF001006A
:10508000F9E7FF212148C01C00F04FF922462946CC
:105090001E48C01C00F030F91C48A0F80140012057
:1050A0001A4908700020E6E708B57E201749C87045
:1050B0000321164801710121417103201349A1F810
:1050C0000100114840798DF800000F4880798DF873
:1050D0000100134800788DF802006846FEF73BFD9A
:1050E00008BD7E200949C8700321084801710221CA
:1050F000417103200549A1F80100704710B502492C
:105100004879FFF700FF10BD1D0D00201E0E002086
:10511000200F0020280100202C010020F05400085E
:105120002F01002010B52B480078012819D1022149
:105130002948FBF7D2FC78B928480078401C274959
:105140000870084600780A280BD10220214908700F
:1051500000202249087004E000201E4908701F4901
:10516000087010BD08B5FEF765FBFEF773FB022261
:105170000A21AFF24F00FEF755FE009000201549BE
:1051800008700E201649087008BD08B5114800784F
:10519000022812D1FEF76FFB8DF80000FEF78BFBA3
:1051A0008DF801000E4800788DF802006846FEF781
:1051B000D2FC0020074908700AE00648007838B998
:1051C00002210548FBF789FC10B90120014908704C
:1051D00008BD00002E010020001001402D0100201C
:1051E0002F01002010B5FFF763F940F201113B4891
:1051F00000F09BF840F20111394800F096F8C82100
:10520000384800F092F83548801C37490860012082
:105210003649087010BD0120704710B500222F4993
:1052200031480068FFF70AFD05280FD1FFF7F3FFAB
:1052300001280DD1294880787E2805D1274800799A
:10524000012805DB002010BD0020FCE70020FAE764
:105250000120F8E710B525480078012820D1FFF794
:10526000DCFF01281CD11D48C078012802D003288A
:1052700014D112E0194909791D4A52F821008047DA
:10528000174804882246811C164800F035F8002291
:1052900021461448FFF7FDFC01E000E000BF00BF1D
:1052A00010BD08B57E200E49887003210C48C170DE
:1052B0000121017103200A490880084840798DF8CE
:1052C0000000064880798DF801000A4800788DF8C2
:1052D00002006846FEF73FFC08BD000029100020D0
:1052E0002A1100202B120020300100203401002060
:1052F000FC5400082F01002040EA01039B0703D063
:1053000009E008C9121F08C0042AFAD203E011F804
:10531000013B00F8013B521EF9D27047D2B201E0C6
:1053200000F8012B491EFBD270470022F6E710B5AA
:1053300013460A4604461946FFF7F0FF204610BD03
:10534000064C074D06E0E06840F0010394E80700D2
:1053500098471034AC42F6D3FAF7EEFE0055000839
:105360002055000870B501EB020410F8015B15F040
:10537000070301D110F8013B2A1106D110F8012BC7
:1053800003E010F8016B01F8016B5B1EF9D12B07EC
:1053900005D40023521E0FD401F8013BFAE710F8A0
:1053A000013B02F10202A1EB030303E013F8015BEE
:1053B00001F8015B521EF9D5A142D6D3002070BD81
:1053C0000FB4054B10B503A9044A029800F017F872
:1053D00010BC5DF814FB00000745000838010020F0
:1053E00002E008C8121F08C1002AFAD170477047AE
:1053F000002001E001C1121F002AFBD170472DE9F6
:10540000F84F9946924688460546002759E02528D8
:1054100001D0514623E0002315F8011F18462E291C
:1054200015D115F8011F04232A290DD06FF02F0282
:105430002978A1F13004092C09D800EB800002EB97
:10544000400008446D1CF3E758F8040B6D1C2A78E3
:1054500072B3632A08D0732A10D0514610464A46C8
:10546000904707F101072BE018F8042B8DF8002076
:1054700000218DF801106E46012103E058F8046BFD
:105480004FF0FF315A074FF0000401D409E0641CCB
:1054900084420BDA8C42FADB325D002AF7D105E058
:1054A000641C8C42FCDB305D0028F9D1274405E008
:1054B0000AE016F8010B51464A469047641EF8D29E
:1054C0006D1C28780028A2D13846BDE8F88F00006E
:1054D0000000020000400000200000000400000066
:1054E0002000000004000000200000024000000432
:1054F000A9500008E3500008FD500008A35200081E
:1055000020550008000000203C0100006453000802
:10551000505500083C010020BC190000F053000861
:105520001184A24A04680901020304060708090C51
:105530006910054D020406080A16FF0101531244C2
:105540001240143801401A14049A0808014300005C
:0400000508000131BD
:00000001FF
